:1000000019C100000C941B08EBC70000BEC700001C
:1000100091C7000064C7000037C700000AC700008E
:10002000DDC6000037C1000035C1000033C100004B
:1000300031C100002FC100002DC100002BC1000004
:1000400029C1000027C1000025C1000023C1000014
:1000500021C100001FC100001DC1000075C60000C5
:1000600019C100003BC6000010C6000013C100000B
:1000700011C100000FC100000DC100000BC1000044
:1000800009C1000007C1000005C1000003C1000054
:1000900001C10000FFC00000FDC00000FBC0000067
:1000A000F9C00000F7C00000F5C00000F3C0000078
:1000B000F1C00000EFC00000EDC00000EBC0000088
:1000C000E9C00000E7C00000E5C00000E3C0000098
:1000D000E1C00000DFC00000DDC00000DBC00000A8
:1000E000D9C000000D031003FF02030307034703F9
:1000F000140318031E03220326032C0330033403C6
:1001000047033A033E034203BF03C403C903D303B7
:10011000DD035604E703EF03F70301040B041504A2
:1001200024042E045604380442044C040000210028
:10013000240027002A002D003000330001010000B8
:10014000040107010A0100002200250028002B00FD
:100150002E003100340002010000050108010B01EE
:1001600005050505070508080808020202020A0A33
:100170000808040404040101010101010101030351
:10018000030303030303040707070C0C0C0C0C0CFC
:100190000C0C0202020206060606060606060B0BF9
:1001A0000B0B0B0B0B0B010210202008081020403A
:1001B000102040800201020108040201010204082B
:1001C00010204080804020100804020180040201B9
:1001D0008040201008040201080402010102040802
:1001E00010204080010204081020408000000A0B0B
:1001F00002090C0D0E0807030401000000000000B6
:1002000000000000000000000000000000000000EE
:1002100000000000000000001211100000000000AB
:1002200000000000000000000000000000000000CE
:1002300000001A0E11241FBECFEFD1E2DEBFCDBFEA
:1002400000E00CBF23E0A2E3B2E001C01D92A53A9A
:10025000B207E1F712E0A0E0B2E0E8EDF1E200E081
:100260000BBF02C007900D92A233B107D9F711E07E
:10027000CAE1D1E000E006C021970109802FFE010C
:100280000E94CA10C931D10780E00807A9F7CFD76B
:100290000C94EA10B5CEE09132028E2F880F880FB1
:1002A00080933202E9B1EC70E695E695E82BE09395
:1002B0003202409164025091650260916602709131
:1002C0006702EF70F0E0E05FFD4F8081082E000CC8
:1002D000990BAA0BBB0B840F951FA61FB71F80930A
:1002E000640290936502A0936602B093670208953A
:1002F000E09133028E2F880F880F80933302E9B18B
:10030000E370E82BE0933302409158025091590278
:1003100060915A0270915B02EF70F0E0E05FFD4F78
:100320008081082E000C990BAA0BBB0B840F951F24
:10033000A61FB71F8093580290935902A0935A02A8
:10034000B0935B020895CF92DF92EF92FF920F93EA
:100350001F93CF93DF936C017A018B01C0E0D0E053
:10036000CE15DF0581F0D8016D918D01D601ED919B
:10037000FC910190F081E02DC6011995892B11F0B7
:100380002196EECF7E01C701DF91CF911F910F9192
:10039000FF90EF90DF90CF900895089580E090E077
:1003A0000895FC01538D448D252F30E0842F90E07B
:1003B000821B930B541710F0CF9608950197089560
:1003C000FC01918D828D981761F0828DDF01A80F5D
:1003D000B11D5D968C91928D9F5F9F73928F90E07F
:1003E00008958FEF9FEF0895FC01918D828D9817EE
:1003F00031F0828DE80FF11D858D90E008958FEF2B
:100400009FEF0895FC01918D228D892F90E0805CF3
:100410009F4F821B91098F73992708958EE692E072
:10042000F1DF21E0892B09F420E0822F0895FC01FF
:10043000848DDF01A80FB11DA35ABF4F2C91848D6D
:1004400090E001968F739927848FA689B7892C93A2
:10045000A089B1898C91837080648C93938D848DF5
:10046000981306C00288F389E02D80818F7D8083F8
:100470000895EF92FF920F931F93CF93DF93EC01B8
:1004800081E0888F9B8D8C8D981305C0E889F98950
:10049000808185FD25C0F62E0B8D10E00F5F1F4F6C
:1004A0000F731127E02E8C8DE8120BC00FB607FCDE
:1004B000FACFE889F989808185FFF5CFCE01B7DFD2
:1004C000F2CF8B8DFE01E80FF11DE35AFF4FF08252
:1004D0009FB7F8940B8FEA89FB89808180620AC0FC
:1004E0009FB7F894EE89FF896083E889F989808154
:1004F0008370806480839FBF81E090E0DF91CF9123
:100500001F910F91FF90EF900895CF93DF93EC012F
:10051000888D8823C1F0EA89FB89808185FD05C02B
:10052000A889B9898C9186FD0EC00FB607FCF5CF5E
:10053000808185FFF2CFA889B9898C9185FFEDCFA5
:10054000CE0175DFE8CFDF91CF91089580E090E094
:10055000892B19F063DF811125C080E090E0892BA1
:1005600041F080E090E0892B21F00E940000811191
:100570001CC080E090E0892B41F080E090E0892B66
:1005800021F00E940000811113C080E090E0892BCF
:10059000A1F080E090E0892B81F00E9400008111A1
:1005A0000AC008950E940000D8CF0E940000E1CF49
:1005B0000E940000EACF0C9400000895362F90E0CE
:1005C000FC01E451FE4F4491FC01EA55FE4F249199
:1005D000FC01E05AFE4F9491992309F46CC0442326
:1005E00009F455C050E0FA013197E231F10508F005
:1005F0004EC08827EE58FF4F8F4F0C94CA10809141
:1006000080008F7707C0809180008F7D03C080912C
:100610008000877F809380003AC084B58F7702C0C6
:1006200084B58F7D84BD33C08091B0008F7703C0C7
:100630008091B0008F7D8093B00029C080919000A0
:100640008F7707C0809190008F7D03C080919000CC
:10065000877F809390001BC08091A0008F7707C098
:100660008091A0008F7D03C08091A000877F809340
:10067000A0000DC0809120018F7707C080912001DC
:100680008F7D03C080912001877F80932001E92F17
:10069000F0E0EE0FFF1FEA5BFE4FA591B4919FB70C
:1006A000F894311104C08C912095282302C0EC915C
:1006B0002E2B2C939FBF0895CF93DF9390E0FC01E6
:1006C000EA55FE4F2491FC01E05AFE4F84918823A5
:1006D00061F190E0880F991FFC01E45DFE4FC59128
:1006E000D491FC01EA5BFE4FA591B491611109C060
:1006F0009FB7F8948881209582238883EC912E23DC
:100700000BC0623061F49FB7F8948881322F309526
:1007100083238883EC912E2B2C939FBF06C08FB729
:10072000F894E8812E2B28838FBFDF91CF91089515
:100730001F93CF93DF93182FEB0161E0BDDF20976C
:1007400011F460E004C0CF3FD10531F461E0812FA6
:10075000DF91CF911F9132CFE12FF0E0E451FE4FB6
:10076000E4918E2F90E0FC013197E231F10508F021
:100770009DC08827EC57FF4F8F4F0C94CA1084B54B
:10078000806884BDC7BD97C084B5806284BDC8BD84
:1007900092C080918000806880938000D09389000F
:1007A000C093880088C08091800080628093800020
:1007B000D0938B00C0938A007EC0809180008860B7
:1007C00080938000D0938D00C0938C0074C0809182
:1007D000B00080688093B000C093B3006CC080917B
:1007E000B00080628093B000C093B40064C0809178
:1007F0009000806880939000D0939900C0939800F7
:100800005AC080919000806280939000D0939B00AA
:10081000C0939A0050C080919000886080939000AF
:10082000D0939D00C0939C0046C08091A00080683A
:100830008093A0008091A0008F7B8093A000D09334
:10084000A900C093A80037C08091A0008062809367
:10085000A000D093AB00C093AA002DC08091A0004F
:1008600088608093A000D093AD00C093AC0023C0FB
:1008700080912001806880932001D0932901C0934A
:10088000280119C080912001806280932001D093BB
:100890002B01C0932A010FC08091200188608093B2
:1008A0002001D0932D01C0932C0105C0C038D10583
:1008B0000CF04CCF46CFDF91CF911F9108953FB7F9
:1008C000F8948091350290913602A0913702B09150
:1008D000380226B5A89B05C02F3F19F00196A11D2F
:1008E000B11D3FBFBA2FA92F982F8827820F911DC6
:1008F000A11DB11DBC01CD0142E0660F771F881F0D
:10090000991F4A95D1F7089508952F923F924F92DB
:100910005F926F927F928F929F92AF92BF92CF928F
:10092000DF92EF92FF920F931F93CF93DF93CDB798
:10093000DEB72F970FB6F894DEBF0FBECDBF9A83F8
:1009400089838FB7F89420916A0230916B024091AD
:100950006C0250916D022A873B874C875D878FBF61
:10096000E981FA8182A193A1A4A1B5A14A855B8501
:100970006C857D85481B590B6A0B7B0B86A597A55B
:10098000A0A9B1A9481759076A077B0708F41BC13A
:10099000FF87EE87048CF58DE02D20813181428127
:1009A000538129833A834B835C83AE85BF859096C0
:1009B000ED91FC91919760817181828193810E9478
:1009C000B50F4B015C01EE85FF8522A533A544A53B
:1009D00055A569817A818B819C810E94B50F6B013D
:1009E0007C01AE85BF8550962D913D914D915C91D6
:1009F0005397C501B4010E94010FEE85FF8526A122
:100A000037A140A551A50E94B60F2B013C01AE8530
:100A1000BF8596966D937D938D939C939997DB9666
:100A2000BC91BD83B11118C0EE85FF852485358545
:100A300046855785C701B6010E94010F9B01AC0195
:100A4000C301B2010E94B50FAE85BF8596966D9326
:100A50007D938D939C939997EE85FF8546A057A033
:100A600060A471A416A907A930AC21AC212F302FA6
:100A7000432D522DC301B2010E94B31018165CF42D
:100A8000812F902FA32DB22DEE85FF8586A397A3EE
:100A9000A0A7B1A71EC0AE85BF85D2962D913D916E
:100AA0004D915C91D5972E833F8348875987C30129
:100AB000B2010E949C0E87FF0CC02E813F814885A9
:100AC0005985AE85BF8596962D933D934D935C9346
:100AD0009997BD81BB2369F0EE85FF852485358517
:100AE00046855785C501B4010E94010F4B015C0189
:100AF00003C0812C912C5401AE85BF8554962D9155
:100B00003D914D915C915797C701B6010E94010F2D
:100B10009B01AC01EE85FF8566A177A180A591A51B
:100B20000E94B50FA50194010E94B60F6B017C01D4
:100B30009B01AC01612F702F832D922D0E949C0E82
:100B400087FD1BC0AE85BF85D2961C91D297D396E8
:100B50000C91D397D4963C90D497D5962C90212F76
:100B6000302F432D522DB601C7010E949C0E87FDE8
:100B700004C01C2D0D2D3E2C2F2CAE85BF855E96FE
:100B8000ED91FC915F97812F902FA32DB22D808343
:100B90009183A283B38329813A814B815C81AE85A5
:100BA000BF859A962D933D934D935C939D972A858F
:100BB0003B854C855D8592962D933D934D935C933B
:100BC000959781E001C080E02F960FB6F894DEBFC4
:100BD0000FBECDBFDF91CF911F910F91FF90EF908E
:100BE000DF90CF90BF90AF909F908F907F906F904D
:100BF0005F904F903F902F9008958F929F92AF9269
:100C0000BF92CF92DF92EF92FF92CF93DF93EC01EE
:100C1000EE8DFF8DC080D180E280F380CEA2DFA276
:100C2000E8A6F9A6EC8DFD8D80819181A281B3812A
:100C30008AA79BA7ACA7BDA78EA89FA8A8ACB9AC54
:100C4000A5019401C701B6010E94B310181664F003
:100C50008AA89BA8ACA8BDA8A5019401C701B601AC
:100C60000E949C0E87FF04C08EA29FA2A8A6B9A6D0
:100C7000DF91CF91FF90EF90DF90CF90BF90AF903A
:100C80009F908F9008950E94E6101F920F920FB6CA
:100C90000F9211240BB60F922F933F934F935F93B4
:100CA0006F937F938F939F93AF93BF93EF93FF9334
:100CB0008EE692E0BCDBFF91EF91BF91AF919F91E7
:100CC0008F917F916F915F914F913F912F910F90F5
:100CD0000BBE0F900FBE0F901F9018951F920F9292
:100CE0000FB60F9211240BB60F922F938F939F93F1
:100CF000EF93FF93E0917E02F0917F028081E0917B
:100D00008402F091850282FD12C090818091870259
:100D10008F5F8F7320918802821751F0E0918702D4
:100D2000F0E0E259FD4F958F8093870201C08081EA
:100D3000FF91EF919F918F912F910F900BBE0F908C
:100D40000FBE0F901F9018951F920F920FB60F9223
:100D500011242F933F938F939F93AF93BF938091D1
:100D60006A0290916B02A0916C02B0916D02309179
:100D7000340223E0230F2D3720F40196A11DB11D6D
:100D800005C026E8230F0296A11DB11D2093340251
:100D900080936A0290936B02A0936C02B0936D02F1
:100DA0008091350290913602A0913702B0913802BD
:100DB0000196A11DB11D8093350290933602A09338
:100DC0003702B0933802BF91AF919F918F913F91BD
:100DD0002F910F900FBE0F901F9018951F920F929A
:100DE0000FB60F9211240BB60F922F933F934F9390
:100DF0005F936F937F938F939F93AF93BF93EF9383
:100E0000FF93E0910E02F0910F021995FF91EF917F
:100E1000BF91AF919F918F917F916F915F914F9112
:100E20003F912F910F900BBE0F900FBE0F901F9010
:100E300018951F920F920FB60F9211240BB60F92B6
:100E40002F933F934F935F936F937F938F939F93D2
:100E5000AF93BF93EF93FF93E0910C02F0910D02DB
:100E60001995FF91EF91BF91AF919F918F917F91D4
:100E70006F915F914F913F912F910F900BBE0F900B
:100E80000FBE0F901F9018951F920F920FB60F92E2
:100E900011240BB60F922F933F934F935F936F9351
:100EA0007F938F939F93AF93BF93EF93FF93E091C3
:100EB0000202F09103021995FF91EF91BF91AF915A
:100EC0009F918F917F916F915F914F913F912F9162
:100ED0000F900BBE0F900FBE0F901F9018951F9292
:100EE0000F920FB60F9211240BB60F922F933F93D0
:100EF0004F935F936F937F938F939F93AF93BF9322
:100F0000EF93FF93E0910002F09101021995FF9198
:100F1000EF91BF91AF919F918F917F916F915F9171
:100F20004F913F912F910F900BBE0F900FBE0F90DE
:100F30001F9018951F920F920FB60F9211240BB6A7
:100F40000F922F933F934F935F936F937F938F9362
:100F50009F93AF93BF93EF93FF93E0910A02F091B9
:100F60000B021995FF91EF91BF91AF919F918F91D6
:100F70007F916F915F914F913F912F910F900BBE99
:100F80000F900FBE0F901F9018951F920F920FB6E3
:100F90000F9211240BB60F922F933F934F935F93B1
:100FA0006F937F938F939F93AF93BF93EF93FF9331
:100FB000E0910802F09109021995FF91EF91BF911C
:100FC000AF919F918F917F916F915F914F913F91E1
:100FD0002F910F900BBE0F900FBE0F901F90189582
:100FE0001F920F920FB60F9211240BB60F922F93F0
:100FF0003F934F935F936F937F938F939F93AF93A1
:10100000BF93EF93FF93E0910602F09107021995C9
:10101000FF91EF91BF91AF919F918F917F916F91D0
:101020005F914F913F912F910F900BBE0F900FBE8C
:101030000F901F9018951F920F920FB60F921124C8
:101040000BB60F922F933F934F935F936F937F93C2
:101050008F939F93AF93BF93EF93FF93E09104021D
:10106000F09105021995FF91EF91BF91AF919F917A
:101070008F917F916F915F914F913F912F910F9041
:101080000BBE0F900FBE0F901F9018954F925F925E
:101090006F927F928F929F92AF92BF92CF92DF9288
:1010A000EF92FF920F931F93CF93DF93CDB7DEB7ED
:1010B0004C0127013801DC015F965C934E935E97EB
:1010C0005D967C936E935C9791963C932E9390974C
:1010D000DA961C92FC0112AA13AA14AA15AA80E09F
:1010E00090E0AFE7B3E486AB97ABA0AFB1AF84E6D7
:1010F00090E0A0E0B0E086A797A7A0ABB1AB01E07D
:1011000010E0118F008F20E030E0A901C301B2018F
:1011100013D687FD63C020E030E0A901C601B50108
:101120000BD687FD5BC020E030E0A9016C897D898A
:101130008E899F8901D687FD51C0D4015B961C938F
:101140000E935A9781E0DB968C93DB97F4014082F3
:101150005182628273821496AD92BD92CD92DC92DE
:1011600017978C899D89AE89BF8980879187A287CF
:10117000B387A301920160E070E0CB01F6D6D40101
:101180001C966D937D938D939C931F972DEC3CEC57
:101190004CEC5DE3C601B50134D69B01AC0160E0C7
:1011A00070E0CB01E2D6F401608B718B828B938B64
:1011B0002DEC3CEC4CEC5DE36C897D898E899F893C
:1011C00039D79B01AC0160E070E0CB01CED6D401F1
:1011D00054966D937D938D939C9357972FB7F89466
:1011E00080916A0290916B02A0916C02B0916D02A5
:1011F0002FBFF40146A557A560A971A9841B950BC3
:10120000A60BB70B82A393A3A4A3B5A3DF91CF91A1
:101210001F910F91FF90EF90DF90CF90BF90AF9014
:101220009F908F907F906F905F904F9008957894EB
:1012300084B5826084BD84B5816084BD85B58260DB
:1012400085BD85B5816085BD80916E00816080938C
:101250006E001092810080918100826080938100F5
:101260008091810081608093810080918000816005
:10127000809380008091B10084608093B100809160
:10128000B00081608093B000809191008260809373
:1012900091008091910081608093910080919000F5
:1012A0008160809390008091A10082608093A10072
:1012B0008091A10081608093A1008091A000816055
:1012C0008093A00080912101826080932101809110
:1012D00021018160809321018091200181608093B0
:1012E000200180917A00846080937A0080917A0056
:1012F000826080937A0080917A00816080937A0086
:1013000080917A00806880937A001092C100E09109
:101310007E02F0917F0282E08083E0917A02F09178
:101320007B021082E0917C02F0917D0280E180835B
:1013300010928602E0918202F091830286E080831F
:10134000E0918002F0918102808180618083E09150
:101350008002F0918102808188608083E091800228
:10136000F0918102808180688083E0918002F09119
:10137000810280818F7D808361E080910B039CD905
:1013800061E080910C0398D961E080910D0394D9BC
:1013900060E080910E0390D960E080910F038CD9BA
:1013A00061E08091100388D961E08091110384D9B4
:1013B00061E08091120380D960E0809113037CD9B1
:1013C00060E08091140378D92BE431E030930B0274
:1013D00020930A02809169008F7380648093690072
:1013E000EB9A3093090220930802809169008F7C68
:1013F000806180936900EA9A28E731E03093070220
:101400002093060280916900837F84608093690045
:10141000E99A3093050220930402809169008C7F41
:10142000816080936900E89A8091A303811103C0D1
:1014300089E693E0E2DB81E08093A3036091970368
:10144000709198038091990390919A0379D49B01AC
:10145000AC0160E070E080E89FE3ECD56B017C01BB
:101460009B01AC016091790370917A0380917B03B9
:1014700090917C03C6D46093790370937A03809330
:101480007B0390937C03A701960160917D0370918B
:101490007E0380917F0390918003CCD560937D0380
:1014A00070937E0380937F039093800381E090E0AC
:1014B000A0E0B0E08093970390939803A0939903E2
:1014C000B0939A03C12CD12C78ECE72E73ECF72E55
:1014D000C0929B03D0929C03E0929D03F0929E03E6
:1014E000412C512CE8EC6E2EE3E47E2E40929F03BB
:1014F0005092A0036092A1037092A203C09187034F
:10150000D091880388809980AA80BB80A301920132
:10151000C501B40128D618162CF4488259826A8273
:101520007B820DC020E030E048EC53ECC501B401F3
:1015300003D487FF04C0C882D982EA82FB828090EC
:101540008F0390909003A0909103B0909203C0906D
:101550009F03D090A003E090A103F090A203A70105
:101560009601C501B401FFD518167CF0C0909B030D
:10157000D0909C03E0909D03F0909E03A7019601FC
:10158000C501B401D9D387FF08C0C0928F03D092A0
:101590009003E0929103F092920380915B0381119A
:1015A00003C081E293E029DB81E080935B036091DB
:1015B0004F03709150038091510390915203C0D317
:1015C0009B01AC0160E070E080E89FE333D56B01E4
:1015D0007C019B01AC0160913103709132038091D9
:1015E0003303909134030DD460933103709332032D
:1015F0008093330390933403A701960160913503E0
:1016000070913603809137039091380313D560931E
:10161000350370933603809337039093380381E04A
:1016200090E0A0E0B0E080934F0390935003A0932C
:101630005103B0935203C12CD12C58ECE52E53EC3E
:10164000F52EC0925303D0925403E0925503F092CA
:101650005603412C512C68EC662E63E4762E4092A2
:101660005703509258036092590370925A03C091E5
:101670003F03D091400388809980AA80BB80A3015A
:101680009201C501B4016FD518162CF44882598215
:101690006A827B820DC020E030E048EC53ECC5014B
:1016A000B4014AD387FF04C0C882D982EA82FB8290
:1016B0008090470390904803A0904903B0904A035C
:1016C000C0905703D0905803E0905903F0905A030C
:1016D000A7019601C501B40146D518168CF4C09235
:1016E0004703D0924803E0924903F0924A0340E452
:1016F000242E42E0342E0AE010E0C0E5D0E01FC006
:10170000C0905303D0905403E0905503F0905603DB
:10171000A7019601C501B4010FD387FFE8CFDFCF42
:10172000DD2009F478C260E080910B030E94DE02A4
:1017300061E080910C030E94DE020E94A60280916B
:101740006802909169020196909369028093680201
:1017500083970CF4B1C08091640290916502A091CE
:101760006602B0916702C0906002D0906102E09082
:101770006202F0906302BC01CD016C197D098E09F3
:101780009F09E0D22B013C0160935C0270935D02E3
:1017900080935E0290935F0280915802909159026B
:1017A000A0915A02B0915B02C0905402D0905502B1
:1017B000E0905602F0905702BC01CD016C197D09F2
:1017C0008E099F09BFD24B015C0160935002709358
:1017D0005102809352029093530271D8C0904C02F0
:1017E000D0904D02E0904E02F0904F029B01AC0170
:1017F0002C193D094E095F0969017A0120934802BD
:101800003093490240934A0250934B028091640204
:1018100090916502A0916602B09167028093600288
:1018200090936102A0936202B09363028091580288
:1018300090915902A0915A02B0915B028093540298
:1018400090935502A0935602B093570238D86093F4
:101850004C0270934D0280934E0290934F02C70149
:10186000B60170D26B017C0124E33FE648EC55E4FD
:10187000C301B201C6D2A7019601DCD36093440232
:1018800070934502809346029093470224E33FE61B
:1018900048EC55E4C501B401B4D2A7019601CAD3FE
:1018A00060934002709341028093420290934302FE
:1018B00010926902109268028EE692E00E94020283
:1018C000181619060CF009C13DE3E32E32E0F32EA1
:1018D0002FB7F89480916A0290916B02A0916C02EC
:1018E000B0916D022FBF8093760290937702A09300
:1018F0007802B09379028EE692E00E94E00197FFB1
:1019000091C12FB7F89480916A0290916B02A091D7
:101910006C02B0916D022FBF409176025091770218
:101920006091780270917902841B950BA60BB70B1E
:10193000409172025091730260917402709175022D
:1019400084179507A607B707B0F220913D0230E053
:1019500027FF8DC08091640290916502A09166027C
:10196000B091670280933902809164029091650280
:10197000A0916602B091670290933A02809164024E
:1019800090916502A0916602B0916702A0933B021C
:101990008091640290916502A0916602B091670205
:1019A000B0933C0244E050E069E372E08EE692E0DE
:1019B0000E94A3018091580290915902A0915A026D
:1019C000B0915B0280933902809158029091590244
:1019D000A0915A02B0915B0290933A028091580212
:1019E00090915902A0915A02B0915B02A0933B02E0
:1019F0008091580290915902A0915A02B0915B02D5
:101A0000B0933C0244E050E069E372E08EE692E07D
:101A10000E94A30120E030E04AE754E460914402D0
:101A2000709145028091460290914702EAD16FD3AE
:101A30006093390270933A0220E030E04AE754E4C0
:101A40006091400270914102809142029091430264
:101A5000D8D15DD360933B0270933C0244E050E0E8
:101A600069E372E08EE692E00E94A30136C04091E5
:101A70003E02842F8F7050E8859F70011124809161
:101A80003F028695E82AC90124E0880F991F2A950C
:101A9000E1F742954F70842B9450B80168D3072E1C
:101AA000000C880B990B4ED16093150370931603AD
:101AB0008093170390931803C7019450B80157D32C
:101AC000072E000C880B990B3DD160935D0370933A
:101AD0005E0380935F039093600380914402909132
:101AE0004502A0914602B091470280931D03909356
:101AF0001E03A0931F03B093200380914002909196
:101B00004102A0914202B0914302809365039093F9
:101B10006603A0936703B093680380915B038823F7
:101B200021F081E293E00E9485048091A303882341
:101B300021F089E693E00E94850460911903709179
:101B40001A0380911B0390911C03DCD27B0177FF69
:101B500007C0EE24FF24E61AF70ADD24D39401C05F
:101B6000D12C81E9E81681E0F80624F090E9E92E0D
:101B7000FF24F394E3E3EE9DC001EF9D900D11244B
:101B8000BE01F5D2809112030E949803EF2811F450
:101B900060E00AC0DD2039F060E0809110030E940F
:101BA000DE0261E006C061E0809110030E94DE0267
:101BB00060E0809111030E94DE02609161037091E8
:101BC000620380916303909164039CD27B0177FF51
:101BD00007C0EE24FF24E61AF70ADD24D39401C0DF
:101BE000D12CF1E9EF16F1E0FF0624F080E9E82EB0
:101BF000FF24F39423E32E9DC0012F9D900D11240B
:101C0000BE01B5D280910D030E949803EF2809F020
:101C100087CD60E001C061E080910B030E94DE028D
:101C200060E087CDF70181937F012E163F0609F012
:101C30004FCE8BCEAF92BF92CF92DF92EF92FF92B8
:101C40000F931F93CF93DF93EEE6F2E0138212829D
:101C500088EE93E0A0E0B0E084839583A683B78309
:101C600084E292E09183808385EC90E0958784877D
:101C700084EC90E09787868780EC90E0918B808B56
:101C800081EC90E0938B828B82EC90E0958B848B3F
:101C900086EC90E0978B868B118E128E138E148EAD
:101CA000D1E4DF93C0E2CF931F921F92A12CB12CFD
:101CB0006501E12CF12C00E712E42DE533E041E66B
:101CC00053E065E673E089E693E0E0D9DF93CF93D4
:101CD0001F921F9225E133E049E153E06DE173E08B
:101CE00081E293E0D3D9EBE0F3E082E0808384E00B
:101CF000818389E0828386E0838386E3848387E02F
:101D0000858388E086838AE087838CE0808787E309
:101D100081878DB79EB708960FB6F8949EBF0FBE09
:101D20008DBFDF91CF911F910F91FF90EF90DF90CA
:101D3000CF90BF90AF90089540D008F481E008950F
:101D4000E89409C097FB3EF4909580957095619555
:101D50007F4F8F4F9F4F9923A9F0F92F96E9BB270B
:101D60009395F695879577956795B795F111F8CF87
:101D7000FAF4BB0F11F460FF1BC06F5F7F4F8F4FF2
:101D80009F4F16C0882311F096E911C0772321F0E8
:101D90009EE8872F762F05C0662371F096E8862F80
:101DA00070E060E02AF09A95660F771F881FDAF7D7
:101DB000880F9695879597F90895990F0008550F04
:101DC000AA0BE0E8FEEF16161706E807F907C0F0C1
:101DD00012161306E407F50798F0621B730B840BC9
:101DE000950B39F40A2661F0232B242B252B21F4A3
:101DF00008950A2609F4A140A6958FEF811D811D43
:101E000008950BD078C069D028F06ED018F09523D3
:101E100009F05AC05FC01124A2C07ED0A0F3959FE4
:101E2000D1F3950F50E0551F629FF001729FBB27C1
:101E3000F00DB11D639FAA27F00DB11DAA1F649F6D
:101E40006627B00DA11D661F829F2227B00DA11D20
:101E5000621F739FB00DA11D621F839FA00D611DA6
:101E6000221F749F3327A00D611D231F849F600DC7
:101E7000211D822F762F6A2F11249F5750408AF000
:101E8000E1F088234AF0EE0FFF1FBB1F661F771F8C
:101E9000881F91505040A9F79E3F510570F014C023
:101EA0005EC05F3FECF3983EDCF3869577956795CF
:101EB000B795F795E7959F5FC1F7FE2B880F911DAA
:101EC0009695879597F9089597F99F6780E870E050
:101ED00060E008959FEF80EC089500240A941616A0
:101EE000170618060906089500240A941216130608
:101EF000140605060895092E0394000C11F4882396
:101F000052F0BB0F40F4BF2B11F460FF04C06F5FB1
:101F10007F4F8F4F9F4F089557FD9058440F551F87
:101F200059F05F3F71F04795880F97FB991F61F05B
:101F30009F3F79F087950895121613061406551FD2
:101F4000F2CF4695F1DF08C0161617061806991F3E
:101F5000F1CF86957105610508940895E894BB2733
:101F600066277727CB0197F908955058BB27AA27F2
:101F70000ED0C1CFB2DF30F0B7DF20F031F49F3F99
:101F800011F41EF4A7CF0EF4E095E7FB9DCFE92FE7
:101F9000C3DF80F3BA17620773078407950718F049
:101FA00071F49EF5DBCF0EF4E0950B2EBA2FA02D29
:101FB0000B01B90190010C01CA01A0011124FF27F6
:101FC000591B99F0593F50F4503E68F11A16F040F1
:101FD000A22F232F342F4427585FF3CF46953795F0
:101FE0002795A795F0405395C9F77EF41F16BA0BB5
:101FF000620B730B840BBAF09150A1F0FF0FBB1F63
:10200000661F771F881FC2F70EC0BA0F621F731FAB
:10201000841F48F4879577956795B795F7959E3F08
:1020200008F0B3CF9395880F08F09927EE0F979596
:10203000879508950CD05FCF57DF40F04EDF30F02A
:1020400021F45F3F19F040CF511189CF43CF64DFB6
:1020500098F39923C9F35523B1F3951B550BBB276F
:10206000AA2762177307840738F09F5F5F4F220F1C
:10207000331F441FAA1FA9F333D00E2E3AF0E0E815
:1020800030D091505040E695001CCAF729D0FE2F61
:1020900027D0660F771F881FBB1F261737074807F3
:1020A000AB07B0E809F0BB0B802DBF01FF279358A9
:1020B0005F4F2AF09E3F510568F006CF50CF5F3F3B
:1020C000ECF3983EDCF3869577956795B795F79591
:1020D0009F5FC9F7880F911D9695879597F9089589
:1020E000E1E0660F771F881FBB1F62177307840725
:1020F000BA0720F0621B730B840BBA0BEE1F88F734
:10210000E095089504D06894B11129CF08950CDFAB
:1021100088F09F5790F0B92F9927B751A0F0D1F0D0
:10212000660F771F881F991F1AF0BA95C9F712C05A
:10213000B13081F013DFB1E0089510CF672F782F11
:102140008827B85F39F0B93FCCF3869577956795C6
:10215000B395D9F73EF490958095709561957F4F32
:102160008F4F9F4F089529DE08F48FEF089597FB56
:10217000072E16F4009406D077FD08D013D007FC84
:1021800005D03EF4909581959F4F08957095619587
:102190007F4F0895EE0FFF1F881F8BBF0790F691AA
:1021A000E02D1994AA1BBB1B51E107C0AA1FBB1F3E
:1021B000A617B70710F0A61BB70B881F991F5A95D3
:1021C000A9F780959095BC01CD01089581E090E03C
:0821D000F89400C0F894FFCF61
:1021D80084048404840484048404840484048404B7
:1021E80000FF0100010000FFFF0000010001FF00E7
:1021F800000000003902A301D10185020202E001BA
:02220800F401DF
:00000001FF
